{
  "_format": "hh-sol-artifact-1",
  "contractName": "Kyc",
  "sourceName": "Contracts/Kyc.sol",
  "abi": [
    {
      "inputs": [],
      "stateMutability": "nonpayable",
      "type": "constructor"
    },
    {
      "inputs": [
        {
          "internalType": "string",
          "name": "_name",
          "type": "string"
        },
        {
          "internalType": "address",
          "name": "_bankAddress",
          "type": "address"
        },
        {
          "internalType": "string",
          "name": "_regNumber",
          "type": "string"
        }
      ],
      "name": "addBank",
      "outputs": [],
      "stateMutability": "nonpayable",
      "type": "function"
    },
    {
      "inputs": [
        {
          "internalType": "string",
          "name": "_name",
          "type": "string"
        },
        {
          "internalType": "string",
          "name": "_data",
          "type": "string"
        }
      ],
      "name": "addCustomer",
      "outputs": [],
      "stateMutability": "nonpayable",
      "type": "function"
    },
    {
      "inputs": [
        {
          "internalType": "string",
          "name": "_name",
          "type": "string"
        },
        {
          "internalType": "string",
          "name": "_data",
          "type": "string"
        }
      ],
      "name": "addKycRequest",
      "outputs": [],
      "stateMutability": "nonpayable",
      "type": "function"
    },
    {
      "inputs": [
        {
          "internalType": "string",
          "name": "_name",
          "type": "string"
        }
      ],
      "name": "downvoteCustomer",
      "outputs": [],
      "stateMutability": "nonpayable",
      "type": "function"
    },
    {
      "inputs": [
        {
          "internalType": "address",
          "name": "_bankAddress",
          "type": "address"
        }
      ],
      "name": "getBankComplaints",
      "outputs": [
        {
          "internalType": "uint256",
          "name": "",
          "type": "uint256"
        }
      ],
      "stateMutability": "view",
      "type": "function"
    },
    {
      "inputs": [
        {
          "internalType": "address",
          "name": "_bankAddress",
          "type": "address"
        },
        {
          "internalType": "bool",
          "name": "_isAllowedToVote",
          "type": "bool"
        }
      ],
      "name": "isAllowedToVote",
      "outputs": [],
      "stateMutability": "nonpayable",
      "type": "function"
    },
    {
      "inputs": [
        {
          "internalType": "string",
          "name": "",
          "type": "string"
        }
      ],
      "name": "kycRequests",
      "outputs": [
        {
          "internalType": "string",
          "name": "userName",
          "type": "string"
        },
        {
          "internalType": "address",
          "name": "bankAddress",
          "type": "address"
        },
        {
          "internalType": "string",
          "name": "customerData",
          "type": "string"
        }
      ],
      "stateMutability": "view",
      "type": "function"
    },
    {
      "inputs": [
        {
          "internalType": "string",
          "name": "_name",
          "type": "string"
        },
        {
          "internalType": "string",
          "name": "_data",
          "type": "string"
        }
      ],
      "name": "modifyCustomer",
      "outputs": [],
      "stateMutability": "nonpayable",
      "type": "function"
    },
    {
      "inputs": [
        {
          "internalType": "address",
          "name": "_bankAddress",
          "type": "address"
        }
      ],
      "name": "removeBank",
      "outputs": [],
      "stateMutability": "nonpayable",
      "type": "function"
    },
    {
      "inputs": [
        {
          "internalType": "string",
          "name": "_name",
          "type": "string"
        }
      ],
      "name": "removeKycRequest",
      "outputs": [],
      "stateMutability": "nonpayable",
      "type": "function"
    },
    {
      "inputs": [
        {
          "internalType": "address",
          "name": "_bankAddress",
          "type": "address"
        },
        {
          "internalType": "string",
          "name": "_bankName",
          "type": "string"
        }
      ],
      "name": "reportBank",
      "outputs": [],
      "stateMutability": "nonpayable",
      "type": "function"
    },
    {
      "inputs": [],
      "name": "totalBanks",
      "outputs": [
        {
          "internalType": "uint256",
          "name": "",
          "type": "uint256"
        }
      ],
      "stateMutability": "view",
      "type": "function"
    },
    {
      "inputs": [
        {
          "internalType": "string",
          "name": "_name",
          "type": "string"
        }
      ],
      "name": "upvoteCustomer",
      "outputs": [],
      "stateMutability": "nonpayable",
      "type": "function"
    },
    {
      "inputs": [
        {
          "internalType": "address",
          "name": "_bankAddress",
          "type": "address"
        }
      ],
      "name": "viewBankDetails",
      "outputs": [
        {
          "internalType": "string",
          "name": "",
          "type": "string"
        },
        {
          "internalType": "address",
          "name": "",
          "type": "address"
        },
        {
          "internalType": "uint256",
          "name": "",
          "type": "uint256"
        },
        {
          "internalType": "uint256",
          "name": "",
          "type": "uint256"
        },
        {
          "internalType": "bool",
          "name": "",
          "type": "bool"
        },
        {
          "internalType": "string",
          "name": "",
          "type": "string"
        }
      ],
      "stateMutability": "view",
      "type": "function"
    },
    {
      "inputs": [
        {
          "internalType": "string",
          "name": "_name",
          "type": "string"
        }
      ],
      "name": "viewCustomer",
      "outputs": [
        {
          "internalType": "string",
          "name": "",
          "type": "string"
        },
        {
          "internalType": "string",
          "name": "",
          "type": "string"
        },
        {
          "internalType": "bool",
          "name": "",
          "type": "bool"
        },
        {
          "internalType": "uint256",
          "name": "",
          "type": "uint256"
        },
        {
          "internalType": "uint256",
          "name": "",
          "type": "uint256"
        },
        {
          "internalType": "address",
          "name": "",
          "type": "address"
        }
      ],
      "stateMutability": "view",
      "type": "function"
    }
  ],
  "bytecode": "0x6080604052600060015534801561001557600080fd5b50336000806101000a81548173ffffffffffffffffffffffffffffffffffffffff021916908373ffffffffffffffffffffffffffffffffffffffff160217905550612890806100656000396000f3fe608060405234801561001057600080fd5b50600436106100f55760003560e01c80639649650c11610097578063e51d4a4411610066578063e51d4a4414610274578063f01cc0a6146102a6578063f2f4ed8f146102c4578063f72860ca146102e0576100f5565b80639649650c14610204578063b238520414610220578063ccfa8e711461023c578063d4a46c5114610258576100f5565b80635ec2a7f2116100d35780635ec2a7f214610167578063734ae8a3146101975780637d38d711146101b357806388cc8d8d146101cf576100f5565b8063107925bb146100fa5780633190abc01461012f578063407756421461014b575b600080fd5b610114600480360381019061010f9190611b9d565b6102fc565b60405161012696959493929190611cda565b60405180910390f35b61014960048036038101906101449190611d49565b61050f565b005b61016560048036038101906101609190611e19565b6106d1565b005b610181600480360381019061017c9190611e59565b6107bd565b60405161018e9190611e86565b60405180910390f35b6101b160048036038101906101ac9190611b9d565b610809565b005b6101cd60048036038101906101c89190611b9d565b610874565b005b6101e960048036038101906101e49190611e59565b610980565b6040516101fb96959493929190611ea1565b60405180910390f35b61021e60048036038101906102199190611e59565b610bb5565b005b61023a60048036038101906102359190611f10565b610dc3565b005b61025660048036038101906102519190611f6c565b611074565b005b610272600480360381019061026d9190611d49565b611320565b005b61028e60048036038101906102899190611b9d565b611582565b60405161029d93929190611ff7565b60405180910390f35b6102ae6116f2565b6040516102bb9190611e86565b60405180910390f35b6102de60048036038101906102d99190611b9d565b6116f8565b005b6102fa60048036038101906102f59190611d49565b611903565b005b60608060008060008060006002886040516103179190612078565b90815260200160405180910390206040518060c0016040529081600082018054610340906120be565b80601f016020809104026020016040519081016040528092919081815260200182805461036c906120be565b80156103b95780601f1061038e576101008083540402835291602001916103b9565b820191906000526020600020905b81548152906001019060200180831161039c57829003601f168201915b505050505081526020016001820180546103d2906120be565b80601f01602080910402602001604051908101604052809291908181526020018280546103fe906120be565b801561044b5780601f106104205761010080835404028352916020019161044b565b820191906000526020600020905b81548152906001019060200180831161042e57829003601f168201915b505050505081526020016002820160009054906101000a900460ff1615151515815260200160038201548152602001600482015481526020016005820160009054906101000a900473ffffffffffffffffffffffffffffffffffffffff1673ffffffffffffffffffffffffffffffffffffffff1673ffffffffffffffffffffffffffffffffffffffff16815250509050806000015181602001518260400151836080015184606001518560a001519650965096509650965096505091939550919395565b8160405160200161052091906120ef565b604051602081830303815290604052805190602001206002836040516105469190612078565b908152602001604051809103902060000160405160200161056791906121aa565b60405160208183030381529060405280519060200120036105bd576040517f08c379a00000000000000000000000000000000000000000000000000000000081526004016105b49061223e565b60405180910390fd5b6040518060c0016040528083815260200182815260200160001515815260200160008152602001600081526020013373ffffffffffffffffffffffffffffffffffffffff168152506002836040516106159190612078565b9081526020016040518091039020600082015181600001908161063891906123f5565b50602082015181600101908161064e91906123f5565b5060408201518160020160006101000a81548160ff021916908315150217905550606082015181600301556080820151816004015560a08201518160050160006101000a81548173ffffffffffffffffffffffffffffffffffffffff021916908373ffffffffffffffffffffffffffffffffffffffff1602179055509050505050565b3373ffffffffffffffffffffffffffffffffffffffff1660008054906101000a900473ffffffffffffffffffffffffffffffffffffffff1673ffffffffffffffffffffffffffffffffffffffff161461075f576040517f08c379a000000000000000000000000000000000000000000000000000000000815260040161075690612513565b60405180910390fd5b80600360008473ffffffffffffffffffffffffffffffffffffffff1673ffffffffffffffffffffffffffffffffffffffff16815260200190815260200160002060040160006101000a81548160ff0219169083151502179055505050565b6000600360008373ffffffffffffffffffffffffffffffffffffffff1673ffffffffffffffffffffffffffffffffffffffff168152602001908152602001600020600201549050919050565b6004816040516108199190612078565b90815260200160405180910390206000808201600061083891906119e6565b6001820160006101000a81549073ffffffffffffffffffffffffffffffffffffffff021916905560028201600061086f91906119e6565b505050565b600360003373ffffffffffffffffffffffffffffffffffffffff1673ffffffffffffffffffffffffffffffffffffffff16815260200190815260200160002060010160009054906101000a900473ffffffffffffffffffffffffffffffffffffffff1673ffffffffffffffffffffffffffffffffffffffff163373ffffffffffffffffffffffffffffffffffffffff1614610944576040517f08c379a000000000000000000000000000000000000000000000000000000000815260040161093b9061257f565b60405180910390fd5b60016002826040516109569190612078565b9081526020016040518091039020600301600082825461097691906125ce565b9250508190555050565b606060008060008060606000600360008973ffffffffffffffffffffffffffffffffffffffff1673ffffffffffffffffffffffffffffffffffffffff1681526020019081526020016000206040518060c00160405290816000820180546109e6906120be565b80601f0160208091040260200160405190810160405280929190818152602001828054610a12906120be565b8015610a5f5780601f10610a3457610100808354040283529160200191610a5f565b820191906000526020600020905b815481529060010190602001808311610a4257829003601f168201915b505050505081526020016001820160009054906101000a900473ffffffffffffffffffffffffffffffffffffffff1673ffffffffffffffffffffffffffffffffffffffff1673ffffffffffffffffffffffffffffffffffffffff16815260200160028201548152602001600382015481526020016004820160009054906101000a900460ff16151515158152602001600582018054610afd906120be565b80601f0160208091040260200160405190810160405280929190818152602001828054610b29906120be565b8015610b765780601f10610b4b57610100808354040283529160200191610b76565b820191906000526020600020905b815481529060010190602001808311610b5957829003601f168201915b5050505050815250509050806000015181602001518260400151836060015184608001518560a001519650965096509650965096505091939550919395565b3373ffffffffffffffffffffffffffffffffffffffff1660008054906101000a900473ffffffffffffffffffffffffffffffffffffffff1673ffffffffffffffffffffffffffffffffffffffff1614610c43576040517f08c379a0000000000000000000000000000000000000000000000000000000008152600401610c3a90612513565b60405180910390fd5b8073ffffffffffffffffffffffffffffffffffffffff16600360008373ffffffffffffffffffffffffffffffffffffffff1673ffffffffffffffffffffffffffffffffffffffff16815260200190815260200160002060010160009054906101000a900473ffffffffffffffffffffffffffffffffffffffff1673ffffffffffffffffffffffffffffffffffffffff1614610d13576040517f08c379a0000000000000000000000000000000000000000000000000000000008152600401610d0a9061264e565b60405180910390fd5b600360008273ffffffffffffffffffffffffffffffffffffffff1673ffffffffffffffffffffffffffffffffffffffff16815260200190815260200160002060008082016000610d6391906119e6565b6001820160006101000a81549073ffffffffffffffffffffffffffffffffffffffff0219169055600282016000905560038201600090556004820160006101000a81549060ff0219169055600582016000610dbe91906119e6565b505050565b600360003373ffffffffffffffffffffffffffffffffffffffff1673ffffffffffffffffffffffffffffffffffffffff16815260200190815260200160002060010160009054906101000a900473ffffffffffffffffffffffffffffffffffffffff1673ffffffffffffffffffffffffffffffffffffffff163373ffffffffffffffffffffffffffffffffffffffff1614610e93576040517f08c379a0000000000000000000000000000000000000000000000000000000008152600401610e8a9061257f565b60405180910390fd5b80604051602001610ea491906120ef565b60405160208183030381529060405280519060200120600360008473ffffffffffffffffffffffffffffffffffffffff1673ffffffffffffffffffffffffffffffffffffffff168152602001908152602001600020600001604051602001610f0c91906121aa565b6040516020818303038152906040528051906020012014610f62576040517f08c379a0000000000000000000000000000000000000000000000000000000008152600401610f59906126ba565b60405180910390fd5b6001600360008473ffffffffffffffffffffffffffffffffffffffff1673ffffffffffffffffffffffffffffffffffffffff1681526020019081526020016000206002016000828254610fb591906125ce565b925050819055506003600154610fcb9190612709565b600360008473ffffffffffffffffffffffffffffffffffffffff1673ffffffffffffffffffffffffffffffffffffffff168152602001908152602001600020600201541115611070576000600360008473ffffffffffffffffffffffffffffffffffffffff1673ffffffffffffffffffffffffffffffffffffffff16815260200190815260200160002060040160006101000a81548160ff0219169083151502179055505b5050565b3373ffffffffffffffffffffffffffffffffffffffff1660008054906101000a900473ffffffffffffffffffffffffffffffffffffffff1673ffffffffffffffffffffffffffffffffffffffff1614611102576040517f08c379a00000000000000000000000000000000000000000000000000000000081526004016110f990612513565b60405180910390fd5b600360008373ffffffffffffffffffffffffffffffffffffffff1673ffffffffffffffffffffffffffffffffffffffff16815260200190815260200160002060010160009054906101000a900473ffffffffffffffffffffffffffffffffffffffff1673ffffffffffffffffffffffffffffffffffffffff168273ffffffffffffffffffffffffffffffffffffffff16036111d2576040517f08c379a00000000000000000000000000000000000000000000000000000000081526004016111c990612786565b60405180910390fd5b6040518060c001604052808481526020018373ffffffffffffffffffffffffffffffffffffffff168152602001600081526020016000815260200160011515815260200182815250600360008473ffffffffffffffffffffffffffffffffffffffff1673ffffffffffffffffffffffffffffffffffffffff168152602001908152602001600020600082015181600001908161126e91906123f5565b5060208201518160010160006101000a81548173ffffffffffffffffffffffffffffffffffffffff021916908373ffffffffffffffffffffffffffffffffffffffff160217905550604082015181600201556060820151816003015560808201518160040160006101000a81548160ff02191690831515021790555060a08201518160050190816112ff91906123f5565b5090505060016000815480929190611316906127a6565b9190505550505050565b60006002836040516113329190612078565b9081526020016040518091039020600001805461134e906120be565b80601f016020809104026020016040519081016040528092919081815260200182805461137a906120be565b80156113c75780601f1061139c576101008083540402835291602001916113c7565b820191906000526020600020905b8154815290600101906020018083116113aa57829003601f168201915b5050505050905060405180606001604052806002836040516113e99190612078565b90815260200160405180910390206000018054611405906120be565b80601f0160208091040260200160405190810160405280929190818152602001828054611431906120be565b801561147e5780601f106114535761010080835404028352916020019161147e565b820191906000526020600020905b81548152906001019060200180831161146157829003601f168201915b505050505081526020016002836040516114989190612078565b908152602001604051809103902060050160009054906101000a900473ffffffffffffffffffffffffffffffffffffffff1673ffffffffffffffffffffffffffffffffffffffff168152602001838152506004826040516114f99190612078565b9081526020016040518091039020600082015181600001908161151c91906123f5565b5060208201518160010160006101000a81548173ffffffffffffffffffffffffffffffffffffffff021916908373ffffffffffffffffffffffffffffffffffffffff160217905550604082015181600201908161157991906123f5565b50905050505050565b6004818051602081018201805184825260208301602085012081835280955050505050506000915090508060000180546115bb906120be565b80601f01602080910402602001604051908101604052809291908181526020018280546115e7906120be565b80156116345780601f1061160957610100808354040283529160200191611634565b820191906000526020600020905b81548152906001019060200180831161161757829003601f168201915b5050505050908060010160009054906101000a900473ffffffffffffffffffffffffffffffffffffffff169080600201805461166f906120be565b80601f016020809104026020016040519081016040528092919081815260200182805461169b906120be565b80156116e85780601f106116bd576101008083540402835291602001916116e8565b820191906000526020600020905b8154815290600101906020018083116116cb57829003601f168201915b5050505050905083565b60015481565b600360003373ffffffffffffffffffffffffffffffffffffffff1673ffffffffffffffffffffffffffffffffffffffff16815260200190815260200160002060010160009054906101000a900473ffffffffffffffffffffffffffffffffffffffff1673ffffffffffffffffffffffffffffffffffffffff163373ffffffffffffffffffffffffffffffffffffffff16146117c8576040517f08c379a00000000000000000000000000000000000000000000000000000000081526004016117bf9061257f565b60405180910390fd5b60016002826040516117da9190612078565b908152602001604051809103902060040160008282546117fa91906125ce565b925050819055506002816040516118119190612078565b9081526020016040518091039020600301546002826040516118339190612078565b9081526020016040518091039020600401541180156118815750600360015461185c9190612709565b60028260405161186c9190612078565b90815260200160405180910390206003015410155b156118c55760016002826040516118989190612078565b908152602001604051809103902060020160006101000a81548160ff021916908315150217905550611900565b60006002826040516118d79190612078565b908152602001604051809103902060020160006101000a81548160ff0219169083151502179055505b50565b600073ffffffffffffffffffffffffffffffffffffffff1660028360405161192b9190612078565b908152602001604051809103902060050160009054906101000a900473ffffffffffffffffffffffffffffffffffffffff1673ffffffffffffffffffffffffffffffffffffffff16036119b3576040517f08c379a00000000000000000000000000000000000000000000000000000000081526004016119aa9061283a565b60405180910390fd5b806002836040516119c49190612078565b908152602001604051809103902060010190816119e191906123f5565b505050565b5080546119f2906120be565b6000825580601f10611a045750611a23565b601f016020900490600052602060002090810190611a229190611a26565b5b50565b5b80821115611a3f576000816000905550600101611a27565b5090565b6000604051905090565b600080fd5b600080fd5b600080fd5b600080fd5b6000601f19601f8301169050919050565b7f4e487b7100000000000000000000000000000000000000000000000000000000600052604160045260246000fd5b611aaa82611a61565b810181811067ffffffffffffffff82111715611ac957611ac8611a72565b5b80604052505050565b6000611adc611a43565b9050611ae88282611aa1565b919050565b600067ffffffffffffffff821115611b0857611b07611a72565b5b611b1182611a61565b9050602081019050919050565b82818337600083830152505050565b6000611b40611b3b84611aed565b611ad2565b905082815260208101848484011115611b5c57611b5b611a5c565b5b611b67848285611b1e565b509392505050565b600082601f830112611b8457611b83611a57565b5b8135611b94848260208601611b2d565b91505092915050565b600060208284031215611bb357611bb2611a4d565b5b600082013567ffffffffffffffff811115611bd157611bd0611a52565b5b611bdd84828501611b6f565b91505092915050565b600081519050919050565b600082825260208201905092915050565b60005b83811015611c20578082015181840152602081019050611c05565b60008484015250505050565b6000611c3782611be6565b611c418185611bf1565b9350611c51818560208601611c02565b611c5a81611a61565b840191505092915050565b60008115159050919050565b611c7a81611c65565b82525050565b6000819050919050565b611c9381611c80565b82525050565b600073ffffffffffffffffffffffffffffffffffffffff82169050919050565b6000611cc482611c99565b9050919050565b611cd481611cb9565b82525050565b600060c0820190508181036000830152611cf48189611c2c565b90508181036020830152611d088188611c2c565b9050611d176040830187611c71565b611d246060830186611c8a565b611d316080830185611c8a565b611d3e60a0830184611ccb565b979650505050505050565b60008060408385031215611d6057611d5f611a4d565b5b600083013567ffffffffffffffff811115611d7e57611d7d611a52565b5b611d8a85828601611b6f565b925050602083013567ffffffffffffffff811115611dab57611daa611a52565b5b611db785828601611b6f565b9150509250929050565b611dca81611cb9565b8114611dd557600080fd5b50565b600081359050611de781611dc1565b92915050565b611df681611c65565b8114611e0157600080fd5b50565b600081359050611e1381611ded565b92915050565b60008060408385031215611e3057611e2f611a4d565b5b6000611e3e85828601611dd8565b9250506020611e4f85828601611e04565b9150509250929050565b600060208284031215611e6f57611e6e611a4d565b5b6000611e7d84828501611dd8565b91505092915050565b6000602082019050611e9b6000830184611c8a565b92915050565b600060c0820190508181036000830152611ebb8189611c2c565b9050611eca6020830188611ccb565b611ed76040830187611c8a565b611ee46060830186611c8a565b611ef16080830185611c71565b81810360a0830152611f038184611c2c565b9050979650505050505050565b60008060408385031215611f2757611f26611a4d565b5b6000611f3585828601611dd8565b925050602083013567ffffffffffffffff811115611f5657611f55611a52565b5b611f6285828601611b6f565b9150509250929050565b600080600060608486031215611f8557611f84611a4d565b5b600084013567ffffffffffffffff811115611fa357611fa2611a52565b5b611faf86828701611b6f565b9350506020611fc086828701611dd8565b925050604084013567ffffffffffffffff811115611fe157611fe0611a52565b5b611fed86828701611b6f565b9150509250925092565b600060608201905081810360008301526120118186611c2c565b90506120206020830185611ccb565b81810360408301526120328184611c2c565b9050949350505050565b600081905092915050565b600061205282611be6565b61205c818561203c565b935061206c818560208601611c02565b80840191505092915050565b60006120848284612047565b915081905092915050565b7f4e487b7100000000000000000000000000000000000000000000000000000000600052602260045260246000fd5b600060028204905060018216806120d657607f821691505b6020821081036120e9576120e861208f565b5b50919050565b600060208201905081810360008301526121098184611c2c565b905092915050565b60008190508160005260206000209050919050565b60008154612133816120be565b61213d8186611bf1565b94506001821660008114612158576001811461216e576121a1565b60ff1983168652811515602002860193506121a1565b61217785612111565b60005b838110156121995781548189015260018201915060208101905061217a565b808801955050505b50505092915050565b600060208201905081810360008301526121c48184612126565b905092915050565b7f437573746f6d657220697320616c72656164792070726573656e742c5768792060008201527f61726520796f7520616464696e672073616d6520437573746f6d65723f000000602082015250565b6000612228603d83611bf1565b9150612233826121cc565b604082019050919050565b600060208201905081810360008301526122578161221b565b9050919050565b60006020601f8301049050919050565b600082821b905092915050565b6000600883026122ab7fffffffffffffffffffffffffffffffffffffffffffffffffffffffffffffffff8261226e565b6122b5868361226e565b95508019841693508086168417925050509392505050565b6000819050919050565b60006122f26122ed6122e884611c80565b6122cd565b611c80565b9050919050565b6000819050919050565b61230c836122d7565b612320612318826122f9565b84845461227b565b825550505050565b600090565b612335612328565b612340818484612303565b505050565b5b818110156123645761235960008261232d565b600181019050612346565b5050565b601f8211156123a95761237a81612111565b6123838461225e565b81016020851015612392578190505b6123a661239e8561225e565b830182612345565b50505b505050565b600082821c905092915050565b60006123cc600019846008026123ae565b1980831691505092915050565b60006123e583836123bb565b9150826002028217905092915050565b6123fe82611be6565b67ffffffffffffffff81111561241757612416611a72565b5b61242182546120be565b61242c828285612368565b600060209050601f83116001811461245f576000841561244d578287015190505b61245785826123d9565b8655506124bf565b601f19841661246d86612111565b60005b8281101561249557848901518255600182019150602085019450602081019050612470565b868310156124b257848901516124ae601f8916826123bb565b8355505b6001600288020188555050505b505050505050565b7f6f776e65722061646472657373206e6f7420666f756e64000000000000000000600082015250565b60006124fd601783611bf1565b9150612508826124c7565b602082019050919050565b6000602082019050818103600083015261252c816124f0565b9050919050565b7f4f6e6c792062616e6b732063616e20646f000000000000000000000000000000600082015250565b6000612569601183611bf1565b915061257482612533565b602082019050919050565b600060208201905081810360008301526125988161255c565b9050919050565b7f4e487b7100000000000000000000000000000000000000000000000000000000600052601160045260246000fd5b60006125d982611c80565b91506125e483611c80565b92508282019050808211156125fc576125fb61259f565b5b92915050565b7f42616e6b206e6f7420666f756e64000000000000000000000000000000000000600082015250565b6000612638600e83611bf1565b915061264382612602565b602082019050919050565b600060208201905081810360008301526126678161262b565b9050919050565b7f42616e6b206e616d65206973206e6f7420666f756e6400000000000000000000600082015250565b60006126a4601683611bf1565b91506126af8261266e565b602082019050919050565b600060208201905081810360008301526126d381612697565b9050919050565b7f4e487b7100000000000000000000000000000000000000000000000000000000600052601260045260246000fd5b600061271482611c80565b915061271f83611c80565b92508261272f5761272e6126da565b5b828204905092915050565b7f42616e6b20697320616c72656164792072656769737465726564000000000000600082015250565b6000612770601a83611bf1565b915061277b8261273a565b602082019050919050565b6000602082019050818103600083015261279f81612763565b9050919050565b60006127b182611c80565b91507fffffffffffffffffffffffffffffffffffffffffffffffffffffffffffffffff82036127e3576127e261259f565b5b600182019050919050565b7f55736572206973206e6f74207265676973746572656400000000000000000000600082015250565b6000612824601683611bf1565b915061282f826127ee565b602082019050919050565b6000602082019050818103600083015261285381612817565b905091905056fea26469706673582212207decfe333876bcd1b4331406099d6f25b5f7bc88621d2c8acd2dca23801e5d9464736f6c63430008110033",
  "linkReferences": {},
  "deployedLinkReferences": {}
}